:020000040000FA
:100000000C9463000C948B000C948B000C948B006C
:100010000C948B000C948B000C948B000C948B0034
:100020000C948B000C948B000C948B000C948B0024
:100030000C948B000C948B000C948B000C948B0014
:100040000C948E030C948B000C94FE030C94D80338
:100050000C948B000C948B000C948B000C948B00F4
:100060000C948B000C948B000000000024002700EF
:100070002A0000000000250028002B0000000000DE
:1000800023002600290004040404040404040202DA
:100090000202020203030303030301020408102007
:1000A0004080010204081020010204081020000012
:1000B0000008000201000003040700000000000027
:1000C00000003004850611241FBECFEFD8E0DEBF4C
:1000D000CDBF11E0A0E0B1E0E8E3F2E102C005909D
:1000E0000D92A43DB107D9F722E0A4EDB1E001C023
:1000F0001D92A238B207E1F710E0C2E6D0E004C0DA
:100100002197FE010E941707C136D107C9F70E9447
:1001100063040C940F090C940000833081F028F4E0
:10012000813099F08230A9F008958730A9F08830A5
:10013000C9F08430B1F4809180008F7D03C080913C
:1001400080008F7780938000089584B58F7784BD79
:10015000089584B58F7DFBCF8091B0008F77809319
:10016000B00008958091B0008F7DF9CFCF93DF93D9
:10017000282F30E0F901E255FF4F8491F901E6564E
:10018000FF4FD491F901EA57FF4FC491CC23A1F05E
:1001900081110E948D00EC2FF0E0EE0FFF1FE4585C
:1001A000FF4FA591B491EC91ED2381E090E009F42B
:1001B00080E0DF91CF91089580E090E0FACF1F9327
:1001C000CF93DF93282F30E0F901E255FF4F849160
:1001D000F901E656FF4FD491F901EA57FF4FC49158
:1001E000CC23A9F0162F81110E948D00EC2FF0E096
:1001F000EE0FFF1FEE58FF4FA591B4918FB7F89403
:10020000EC91111108C0D095DE23DC938FBFDF91F4
:10021000CF911F910895DE2BF8CFCF93DF9390E01D
:10022000FC01E656FF4F24918A579F4FFC018491B1
:100230008823D1F090E0880F991FFC01E859FF4F07
:10024000A591B491FC01EE58FF4FC591D491611175
:100250000EC09FB7F8948C91E22FE0958E238C937B
:100260002881E223E8839FBFDF91CF9108958FB764
:10027000F894EC91E22BEC938FBFF6CF3FB7F89454
:100280008091D9019091DA01A091DB01B091DC015C
:1002900026B5A89B05C02F3F19F00196A11DB11DE1
:1002A0003FBFBA2FA92F982F8827BC01CD01620F1D
:1002B000711D811D911D42E0660F771F881F991FD8
:1002C0004A95D1F708958F929F92AF92BF92CF92A5
:1002D000DF92EF92FF926B017C010E943E014B0185
:1002E0005C01C114D104E104F104B9F00E943E01A3
:1002F000681979098A099B09683E7340810591054F
:1003000080F321E0C21AD108E108F10888EE880ED6
:1003100083E0981EA11CB11CE4CFFF90EF90DF900A
:10032000CF90BF90AF909F908F900895AF92BF9263
:10033000CF92DF92EF92FF920F931F93CF93DF93B1
:100340006C017B018B01040F151FEB015E01AE18E0
:10035000BF08C017D10759F06991D601ED91FC9102
:100360000190F081E02DC6010995892B79F7C5012F
:10037000DF91CF911F910F91FF90EF90DF90CF9081
:10038000BF90AF900895FC01538D448D252F30E030
:10039000842F90E0821B930B541710F0CF96089592
:1003A00001970895FC01918D828D981761F0A28DBF
:1003B000AE0FBF2FB11D5D968C91928D9F5F9F7385
:1003C000928F90E008958FEF9FEF0895FC01918D3B
:1003D000828D981731F0828DE80FF11D858D90E0A8
:1003E00008958FEF9FEF0895FC01918D228D892F45
:1003F00090E0805C9F4F821B91098F73992708952D
:100400008DED91E00E94F40121E0892B09F420E0B8
:10041000822F089580E090E0892B29F00E9400024D
:1004200081110C9400000895FC01A48DA80FB92F30
:10043000B11DA35ABF4F2C91848D90E001968F730C
:100440009927848FA689B7892C93A089B1898C912B
:10045000837080648C93938D848D981306C002887A
:10046000F389E02D80818F7D80830895EF92FF9244
:100470000F931F93CF93DF93EC0181E0888F9B8DC7
:100480008C8D98131AC0E889F989808185FF15C081
:100490009FB7F894EE89FF896083E889F9898081A4
:1004A0008370806480839FBF81E090E0DF91CF9173
:1004B0001F910F91FF90EF900895F62E0B8D10E095
:1004C0000F5F1F4F0F731127E02E8C8D8E110CC004
:1004D0000FB607FCFACFE889F989808185FFF5CF4F
:1004E000CE010E941402F1CFEB8DEC0FFD2FF11D18
:1004F000E35AFF4FF0829FB7F8940B8FEA89FB898C
:1005000080818062CFCFCF93DF93EC01888D8823E9
:10051000B9F0AA89BB89E889F9898C9185FD03C066
:10052000808186FD0DC00FB607FCF7CF8C9185FF4B
:10053000F2CF808185FFEDCFCE010E941402E9CF7A
:10054000DF91CF9108950895FC01A081B1811097AA
:1005500099F012968D919C911397019713969C9305
:100560008E931297892B41F4ED91FC9111970480A1
:10057000F581E02DCD0109940895FC010190002042
:10058000E9F73197AF01481B590BBC018DED91E0A4
:100590000C9496018F929F92AF92BF920F931F93EC
:1005A000CF93DF93CDB7DEB7A1970FB6F894DEBF38
:1005B0000FBECDBF19A2423008F44AE08E010F5D94
:1005C0001F4F842E912CB12CA12CA50194010E94C7
:1005D000DF06E62FB901CA01EA30F4F4E05DD80184
:1005E000EE938D01232B242B252B79F790E080E0CF
:1005F000109719F0CD010E94BD02A1960FB6F89494
:10060000DEBF0FBECDBFDF91CF911F910F91BF9085
:10061000AF909F908F900895E95CE1CFCF92DF92E9
:10062000EF92FF92CF93DF936B017C016DE28DED32
:1006300091E00E943602EC0166277727CB016C1906
:100640007D098E099F094AE00E94CA028C0F9D1FF6
:10065000DF91CF91FF90EF90DF90CF900895CF93EF
:10066000DF930E94BD02EC0182E291E00E94BD0294
:100670008C0F9D1FDF91CF9108950C94B907FC0159
:10068000848195810C94B907EF92FF920F931F9389
:10069000CF93DF93EC017B01FB0101900020E9F790
:1006A00031978F01061B170B88819981009729F0DC
:1006B0002A813B812017310788F4B8016F5F7F4F93
:1006C0000E9442080097B9F0998388831B830A83AC
:1006D0002C813D81232B11F4FC0110821D830C839E
:1006E000B70188819981DF91CF911F910F91FF9080
:1006F000EF900C94080988819981009711F00E946D
:10070000B907198218821D821C821B821A82DF910E
:10071000CF911F910F91FF90EF9008951F920F922C
:100720000FB60F9211242F933F938F939F93AF9304
:10073000BF938091D5019091D601A091D701B0913E
:10074000D8013091D40123E0230F2D3758F50196BD
:10075000A11DB11D2093D4018093D5019093D601A2
:10076000A093D701B093D8018091D9019091DA017B
:10077000A091DB01B091DC010196A11DB11D809318
:10078000D9019093DA01A093DB01B093DC01BF9112
:10079000AF919F918F913F912F910F900FBE0F902E
:1007A0001F90189526E8230F0296A11DB11DD2CFE8
:1007B0001F920F920FB60F9211242F933F934F93D6
:1007C0005F936F937F938F939F93AF93BF93EF93B9
:1007D000FF938DED91E00E941402FF91EF91BF9184
:1007E000AF919F918F917F916F915F914F913F91C9
:1007F0002F910F900FBE0F901F9018951F920F9280
:100800000FB60F9211242F938F939F93EF93FF9323
:10081000E091ED01F091EE018081E091F301F09122
:10082000F40182FD1BC090818091F6018F5F8F7370
:100830002091F701821741F0E091F601F0E0E352D8
:10084000FE4F958F8093F601FF91EF919F918F91CD
:100850002F910F900FBE0F901F9018958081F4CFAD
:10086000EDEDF1E01382128288EE93E0A0E0B0E0BB
:1008700084839583A683B78384E191E09183808309
:1008800085EC90E09587848784EC90E09787868755
:1008900080EC90E0918B808B81EC90E0938B828B4D
:1008A00082EC90E0958B848B86EC90E0978B868B26
:1008B000118E128E138E148EEAE7F2E011821082EE
:1008C000138212820895CF93DF93CDB7DEB72A97B4
:1008D0000FB6F894DEBF0FBECDBF789484B58260AA
:1008E00084BD84B5816084BD85B5826085BD85B5D4
:1008F000816085BD80916E00816080936E00109252
:1009000081008091810082608093810080918100CC
:10091000816080938100809180008160809380005D
:100920008091B10084608093B1008091B0008160BB
:100930008093B00080917A00846080937A008091E7
:100940007A00826080937A0080917A00816080933F
:100950007A0080917A00806880937A001092C100BA
:10096000E091ED01F091EE0182E08083E091E901F8
:10097000F091EA011082E091EB01F091EC018FEC33
:1009800080831092F501E091F101F091F20186E08F
:100990008083E091EF01F091F0018081806180839C
:1009A000E091EF01F091F001808188608083E09117
:1009B000EF01F091F001808180688083E091EF0188
:1009C000F091F00180818F7D808385E291E00E942B
:1009D0002F0361E08DE00E940D0161E080E00E9444
:1009E0000D018BE291E00E942F0386E090E00E94CF
:1009F0001D077C0182E090E0F7019183808384EF02
:100A000091E0A0E0B0E082839383A483B58361E0AA
:100A100082E00E940D0161E0F70180810E94DF0009
:100A2000F886EF821A86198686E090E00E941D07FC
:100A30008C0181E090E0F801938382838AE091E069
:100A400091838083F582E4821A830983011511055D
:100A500019F4C7010E94B9071A8709871A821982F7
:100A6000CE0101960E94A4028F81988529853A853E
:100A70001A86198618861F8240917A0250917B024D
:100A80005A83498390937B0280937A0280917C02FF
:100A900090917D0230937D0220937C029C838B8316
:100AA000CE0103960E94A402CE0109960E94A402E0
:100AB00090E4292E44244A9423E0522E612C712C78
:100AC0003BE3A32EBB24B3944E01F6E08F0E911CA2
:100AD00020927C0080917A00806480937A008091DB
:100AE0007A0086FDFCCFA0917800B091790024EBCC
:100AF00030E00E941007A30192010E94890661E084
:100B0000253631050CF460E080E00E94DF0064EFE0
:100B100071E080E090E00E94630180E491E00E9437
:100B20002F0300917A0210917B02F8016281738198
:100B3000848195810E94630161E0F80180810E94B7
:100B40000D0160E0F80180810E94DF0062E170E049
:100B500080E090E00E94630161E0F80180810E94E2
:100B6000DF008BE990E00197F1F760E0F801808108
:100B70000E940D018FB7F894C090D501D090D60196
:100B8000E090D701F090D8018FBFF80180810E94DA
:100B9000B6000197A1F52FB7F8948091D5019091F7
:100BA000D601A091D701B091D8012FBF8C199D0912
:100BB000AE09BF09893E9340A105B10530F31A8201
:100BC00019821C821B821E821D8265E771E0CE01A4
:100BD00001960E9444034D815E8169817A818DED89
:100BE00091E00E94960182E291E00E94BD0289811B
:100BF0009A81009709F473C00E94B90770C0F80188
:100C000080810E94B600892BD1F6C5010197F1F7CA
:100C1000F80180810E94B600019789F6C50101970D
:100C2000F1F7CE0101966C0187E0E82EF12C312C12
:100C3000F80180810E94B600892BD1F383E790E010
:100C40000197F1F7F80180810E94B600813091058B
:100C500031F40E2C01C0880F0A94EAF7382AF80103
:100C600080810E94B6000197D1F3F1E0EF1AF108FC
:100C7000F8F6F60131926F01FDEF3F1609F49FCFB0
:100C8000C814D90489F619810B814D818A81810F9D
:100C90009927991F9C01200F311D8C81820F932F62
:100CA000911D99274817190639F584E591E00E94AE
:100CB000BD02602F70E090E080E04AE00E94CA022E
:100CC00082E691E00E94BD02612F70E090E080E03A
:100CD0004AE00E94CA0282E791E00E942F0380E06E
:100CE00090E0892B09F4F4CE0E940002882309F4D5
:100CF000EFCE0E940000ECCE1A8219821C821B8269
:100D00001E821D826DE971E062CF8CE792E00C9447
:100D1000A402052E97FB1EF400940E94A00657FD26
:100D200007D00E94DF0607FC03D04EF40C94A00607
:100D300050954095309521953F4F4F4F5F4F089507
:100D400090958095709561957F4F8F4F9F4F089537
:100D50002F923F924F925F926F927F928F929F92CB
:100D6000AF92BF92CF92DF92EF92FF920F931F93B9
:100D7000CF93DF93CDB7DEB7CA1BDB0B0FB6F8946A
:100D8000DEBF0FBECDBF09942A88398848885F84AA
:100D90006E847D848C849B84AA84B984C884DF801B
:100DA000EE80FD800C811B81AA81B981CE0FD11DFF
:100DB0000FB6F894DEBF0FBECDBFED010895A1E2DE
:100DC0001A2EAA1BBB1BFD010DC0AA1FBB1FEE1FC5
:100DD000FF1FA217B307E407F50720F0A21BB30B10
:100DE000E40BF50B661F771F881F991F1A9469F78C
:100DF00060957095809590959B01AC01BD01CF01E8
:100E00000895A29FB001B39FC001A39F700D811DE3
:100E10001124911DB29F700D811D1124911D089503
:100E20000E940107B7FF0895821B930B0895EE0FF0
:100E3000FF1F0590F491E02D09940F931F93CF931A
:100E4000DF938230910510F482E090E0E09180021F
:100E5000F091810230E020E0B0E0A0E0309799F41A
:100E60002115310509F44AC0281B390B24303105FE
:100E7000D8F58A819B816115710589F1FB01938306
:100E80008283FE0111C04081518102811381481784
:100E90005907E0F04817590799F4109761F0129636
:100EA0000C93129713961C933296CF01DF91CF913A
:100EB0001F910F9108950093800210938102F4CF47
:100EC0002115310551F04217530738F0A901DB0114
:100ED0009A01BD01DF01F801C1CFEF01F9CF909375
:100EE000810280938002CDCFFE01E20FF31F819338
:100EF00091932250310939832883D7CF20917E02E4
:100F000030917F02232B41F42091020130910301A3
:100F100030937F0220937E022091000130910101E5
:100F20002115310541F42DB73EB740910401509190
:100F30000501241B350BE0917E02F0917F02E21740
:100F4000F307A0F42E1B3F0B2817390778F0AC01EC
:100F50004E5F5F4F2417350748F04E0F5F1F5093C9
:100F60007F0240937E02819391939FCFF0E0E0E077
:100F70009CCFCF93DF930097E9F0FC013297138267
:100F80001282A0918002B0918102ED0130E020E058
:100F90001097A1F420813181820F931F20917E024E
:100FA00030917F022817390709F061C0F0937F0262
:100FB000E0937E02DF91CF910895EA01CE17DF071B
:100FC000E8F54A815B819E0141155105B1F7E901C0
:100FD000FB83EA8349915991C40FD51FEC17FD0794
:100FE00061F4808191810296840F951FE9019983B4
:100FF0008883828193819B838A83F0E0E0E012966C
:101000008D919C9113970097B9F52D913C91119773
:10101000CD010296820F931F20917E0230917F02B4
:101020002817390739F6309751F51092810210923E
:101030008002B0937F02A0937E02BCCFD383C28391
:1010400040815181840F951FC817D90761F44E5F05
:101050005F4F88819981480F591F518340838A814E
:101060009B81938382832115310509F0B0CFF093E2
:101070008102E09380029ECFFD01DC01C0CF13828C
:101080001282D7CFB0E0A0E0E8E4F8E00C94AA0622
:101090008C01009751F4CB010E941D078C01C801FF
:1010A000CDB7DEB7E0E10C94C606FC01E60FF71FF2
:1010B0009C0122503109E217F30708F49DC0D901C1
:1010C000CD91DC911197C617D70798F0C530D1059F
:1010D00030F3CE0104978617970708F3C61BD70B8A
:1010E0002297C193D1936D937C93CF010E94B9074E
:1010F000D6CF5B01AC1ABD0A4C018C0E9D1EA0918F
:101100008002B0918102512C412CF12CE12C1097DE
:1011100031F580917E0290917F028815990509F042
:101120005CC04616570608F058C0809100019091A7
:101130000101009741F48DB79EB740910401509191
:101140000501841B950BE817F90708F055C0F093CB
:101150007F02E0937E02F90171836083A0CF8D91BD
:101160009C91119712966C90129713967C901397FE
:10117000A815B90559F56C0142E0C40ED11CCA147A
:10118000DB0420F1AC014A195B09DA0112961597CC
:1011900080F06282738251834083D9016D937C9386
:1011A000E114F10471F0D7011396FC93EE931297BA
:1011B00076CF22968C0F9D1FF90191838083F301D6
:1011C000EFCFF0938102E093800269CF4816590671
:1011D00008F42C017D01D3019ACFCB010E941D0799
:1011E0007C01009749F0AE01B8010E94FF08C801D8
:1011F0000E94B907870153CF10E000E050CFFB01F8
:10120000DC0102C001900D9241505040D8F7089582
:10121000FB01DC0101900D920020E1F7089510E040
:10122000C2E6D0E004C0FE010E9417072196C33633
:10123000D107C9F7F894FFCF0000820280000000B8
:101240000000A3023D033F030000000036029601A8
:10125000C3018302F401D201E6010D0A0048616C6A
:101260006C6F003D3D3D2053656E736F722053657A
:10127000747570203D3D3D003D3D3D2053656E73CE
:101280006F72204C6F6F70203D3D3D0054656D7056
:10129000657261747572653A200020C2B0430948D6
:1012A000756D69646974793A200020250045727271
:1012B0006F72203235332052656164696E67206633
:1012C000726F6D2044485431312074696D6564201B
:1012D0006F75742E004572726F7220323534204360
:1012E0006865636B73756D206D69736D6174636898
:1012F000207768696C652072656164696E67206635
:0C130000726F6D2044485431312E000003
:107E0000112484B714BE81FFF0D085E080938100F7
:107E100082E08093C00088E18093C10086E0809377
:107E2000C20080E18093C4008EE0C9D0259A86E02C
:107E300020E33CEF91E0309385002093840096BBD3
:107E4000B09BFECF1D9AA8958150A9F7CC24DD24C4
:107E500088248394B5E0AB2EA1E19A2EF3E0BF2EE7
:107E6000A2D0813461F49FD0082FAFD0023811F036
:107E7000013811F484E001C083E08DD089C08234E0
:107E800011F484E103C0853419F485E0A6D080C0E4
:107E9000853579F488D0E82EFF2485D0082F10E0AE
:107EA000102F00270E291F29000F111F8ED06801E7
:107EB0006FC0863521F484E090D080E0DECF843638
:107EC00009F040C070D06FD0082F6DD080E0C81688
:107ED00080E7D80618F4F601B7BEE895C0E0D1E017
:107EE00062D089930C17E1F7F0E0CF16F0E7DF06D8
:107EF00018F0F601B7BEE89568D007B600FCFDCFD4
:107F0000A601A0E0B1E02C9130E011968C91119780
:107F100090E0982F8827822B932B1296FA010C0160
:107F200087BEE89511244E5F5F4FF1E0A038BF0790
:107F300051F7F601A7BEE89507B600FCFDCF97BE46
:107F4000E89526C08437B1F42ED02DD0F82E2BD052
:107F50003CD0F601EF2C8F010F5F1F4F84911BD097
:107F6000EA94F801C1F70894C11CD11CFA94CF0C13
:107F7000D11C0EC0853739F428D08EE10CD085E9AC
:107F80000AD08FE07ACF813511F488E018D01DD067
:107F900080E101D065CF982F8091C00085FFFCCF94
:107FA0009093C60008958091C00087FFFCCF809118
:107FB000C00084FD01C0A8958091C6000895E0E648
:107FC000F0E098E1908380830895EDDF803219F02E
:107FD00088E0F5DFFFCF84E1DECF1F93182FE3DFCA
:107FE0001150E9F7F2DF1F91089580E0E8DFEE27F6
:047FF000FF270994CA
:027FFE00040479
:00000001FF
